S00A0000584F2E7372656373
S11300000C942A000C9447000C9447000C9447006D
S11300100C9447000C9447000C9447000C94470040
S11300200C9447000C9447000C9447000C94470030
S11300300C9447000C9447000C9447000C94470020
S11300400C9447000C9447000C9447000C9449000E
S11300500C94470011241FBECFE5D4E0DEBFCDBF12
S113006010E0A0E6B0E0E2E9F4E002C005900D92F1
S1130070AC36B107D9F720E0ACE6B0E001C01D9280
S1130080A937B207E1F70E94B0010C9447020C941F
S113009000001F920F920FB60F9211240F931F931B
S11300A02F933F934F935F936F937F938F939F937C
S11300B0AF93BF93CF93DF93EF93FF9382B3806E9D
S11300C082BB85B3807C85BB82B3887F82BB80E0A2
S11300D090E0E8E7F0E041E050E0C5E7D0E066E713
S11300E070E0182F208130E0D901AA0FBB1FA20FA6
S11300F0B31FA80FB91FA459BF4F2C912223F9F0A5
S1130100213071F405B3DC01A759BF4F9A010C905B
S113011002C0220F331F0A94E2F7202B25BB0FC025
S1130120223069F405B3DC01AA59BF4F9A010C903F
S113013002C0220F331F0A94E2F7202B25BB308123
S11301402881321311C0DB012C9112130DC012B39C
S1130150DC01AD59BF4F9A010C9002C0220F331F2E
S11301600A94E2F7212B22BB01968330910509F012
S1130170B8CF32B320917800E22FF0E0E05AFF4F7D
S113018081E090E0008002C0880F991F0A94E2F792
S11301908095832382BB211104C081E08093780081
S11301A089C0213021F482E08093780083C022301A
S11301B009F080C0109278007DC04191442369F019
S11301C0540F6150D1F7533019F4C49AC2987BC0CC
S11301D0563021F4C19AC59876C07A2F03968217B7
S11301E0930741F44FE650E02CE630E0D0E0C0E065
S11301F0B0E01EC0FC016C2F5B2FDFCFF901E80FCC
S1130200F91F6081662379F0A60F03968930910562
S1130210A9F7A33019F4C49AC29855C0A63019F4AA
S1130220C19AC59850C02F5F3F4F2417350721F05E
S11302308D2F9C2FAB2FE2CF20916C002223C1F095
S1130240809170008823A1F030917400332381F0F1
S113025090E0820F911D830F911D8330910519F455
S1130260C49AC29830C0069719F4C19AC5982BC095
S113027020916E002223C1F0809170008823A1F0A8
S113028030917200332381F090E0820F911D830F2F
S1130290911D8330910519F4C49AC29814C006972D
S11302A019F4C19AC5980FC0711132C088B389601E
S11302B088BB09C025E730E08CE690E070E0C3E03D
S11302C0B0E0A1E097CFBFEF29E688E1B15020402C
S11302D08040E1F700C0000018BA10926C00109240
S11302E06D0010926E0010926F00109270001092C8
S11302F071001092720010927300109274001092A8
S1130300780081E080937700109276001092750057
S1130310FF91EF91DF91CF91BF91AF919F918F9119
S11303207F916F915F914F913F912F911F910F9109
S11303300F900FBE0F901F90189589B7826089BFE8
S113034083B7836083BF08958AB38ABB87B38F63FF
S113035087BB84B38F6384BB81B3876E81BB0895ED
S11303600E94A4010E949D0110926C0010926D00E5
S113037010926E0010926F00109270001092710033
S11303801092720010927300109274001092780010
S113039081E080937700109276001092750018BA6D
S11303A07894E6E7F0E0A5E7B0E062E047E750E0E4
S11303B071E0CF991AC02FE788E391E02150804083
S11303C09040E1F700C00000CF9B0FC080818111F5
S11303D00AC08C91811103C06C93608306C0815064
S11303E08C93608302C081508083CE991AC0CFE77A
S11303F0D8E321E0C150D0402040E1F700C0000024
S1130400CE9B0FC08081823051F48C91823019F4DC
S113041010821C9206C010828F5F8C9302C08F5F83
S11304208083CD99C6CF8FE798E3C1E08150904097
S1130430C040E1F700C00000CD9BBBCF8C9190E0A1
S1130440208130E0EC01CC0FDD1FC80FD91FC20F93
S1130450D31FC459DF4FC881C111ABCFEA01188142
S1130460EC01CC0FDD1F8C0F9D1F280F391FE901F4
S1130470C459DF4F1883113019F4EA01688304C0AA
S1130480123011F4EA01788310821C9292CFF8940E
S1050490FFCF98
S10F049205060700010201030500020436
S9030000FC
